{
  "contractName": "BlocksToken",
  "abi": [
    {
      "inputs": [
        {
          "internalType": "string",
          "name": "baseURI",
          "type": "string"
        },
        {
          "internalType": "uint128",
          "name": "mintingCost",
          "type": "uint128"
        }
      ],
      "stateMutability": "nonpayable",
      "type": "constructor"
    },
    {
      "anonymous": false,
      "inputs": [
        {
          "indexed": true,
          "internalType": "address",
          "name": "owner",
          "type": "address"
        },
        {
          "indexed": true,
          "internalType": "address",
          "name": "approved",
          "type": "address"
        },
        {
          "indexed": true,
          "internalType": "uint256",
          "name": "tokenId",
          "type": "uint256"
        }
      ],
      "name": "Approval",
      "type": "event"
    },
    {
      "anonymous": false,
      "inputs": [
        {
          "indexed": true,
          "internalType": "address",
          "name": "owner",
          "type": "address"
        },
        {
          "indexed": true,
          "internalType": "address",
          "name": "operator",
          "type": "address"
        },
        {
          "indexed": false,
          "internalType": "bool",
          "name": "approved",
          "type": "bool"
        }
      ],
      "name": "ApprovalForAll",
      "type": "event"
    },
    {
      "anonymous": false,
      "inputs": [
        {
          "indexed": true,
          "internalType": "address",
          "name": "previousOwner",
          "type": "address"
        },
        {
          "indexed": true,
          "internalType": "address",
          "name": "newOwner",
          "type": "address"
        }
      ],
      "name": "OwnershipTransferred",
      "type": "event"
    },
    {
      "anonymous": false,
      "inputs": [
        {
          "indexed": true,
          "internalType": "address",
          "name": "from",
          "type": "address"
        },
        {
          "indexed": true,
          "internalType": "address",
          "name": "to",
          "type": "address"
        },
        {
          "indexed": true,
          "internalType": "uint256",
          "name": "tokenId",
          "type": "uint256"
        }
      ],
      "name": "Transfer",
      "type": "event"
    },
    {
      "inputs": [
        {
          "internalType": "address",
          "name": "to",
          "type": "address"
        },
        {
          "internalType": "uint256",
          "name": "tokenId",
          "type": "uint256"
        }
      ],
      "name": "approve",
      "outputs": [],
      "stateMutability": "nonpayable",
      "type": "function"
    },
    {
      "inputs": [
        {
          "internalType": "address",
          "name": "owner",
          "type": "address"
        }
      ],
      "name": "balanceOf",
      "outputs": [
        {
          "internalType": "uint256",
          "name": "",
          "type": "uint256"
        }
      ],
      "stateMutability": "view",
      "type": "function",
      "constant": true
    },
    {
      "inputs": [],
      "name": "baseURI",
      "outputs": [
        {
          "internalType": "string",
          "name": "",
          "type": "string"
        }
      ],
      "stateMutability": "view",
      "type": "function",
      "constant": true
    },
    {
      "inputs": [
        {
          "internalType": "uint256",
          "name": "tokenId",
          "type": "uint256"
        }
      ],
      "name": "getApproved",
      "outputs": [
        {
          "internalType": "address",
          "name": "",
          "type": "address"
        }
      ],
      "stateMutability": "view",
      "type": "function",
      "constant": true
    },
    {
      "inputs": [
        {
          "internalType": "address",
          "name": "owner",
          "type": "address"
        },
        {
          "internalType": "address",
          "name": "operator",
          "type": "address"
        }
      ],
      "name": "isApprovedForAll",
      "outputs": [
        {
          "internalType": "bool",
          "name": "",
          "type": "bool"
        }
      ],
      "stateMutability": "view",
      "type": "function",
      "constant": true
    },
    {
      "inputs": [],
      "name": "name",
      "outputs": [
        {
          "internalType": "string",
          "name": "",
          "type": "string"
        }
      ],
      "stateMutability": "view",
      "type": "function",
      "constant": true
    },
    {
      "inputs": [],
      "name": "owner",
      "outputs": [
        {
          "internalType": "address",
          "name": "",
          "type": "address"
        }
      ],
      "stateMutability": "view",
      "type": "function",
      "constant": true
    },
    {
      "inputs": [
        {
          "internalType": "uint256",
          "name": "tokenId",
          "type": "uint256"
        }
      ],
      "name": "ownerOf",
      "outputs": [
        {
          "internalType": "address",
          "name": "",
          "type": "address"
        }
      ],
      "stateMutability": "view",
      "type": "function",
      "constant": true
    },
    {
      "inputs": [],
      "name": "renounceOwnership",
      "outputs": [],
      "stateMutability": "nonpayable",
      "type": "function"
    },
    {
      "inputs": [
        {
          "internalType": "address",
          "name": "from",
          "type": "address"
        },
        {
          "internalType": "address",
          "name": "to",
          "type": "address"
        },
        {
          "internalType": "uint256",
          "name": "tokenId",
          "type": "uint256"
        }
      ],
      "name": "safeTransferFrom",
      "outputs": [],
      "stateMutability": "nonpayable",
      "type": "function"
    },
    {
      "inputs": [
        {
          "internalType": "address",
          "name": "from",
          "type": "address"
        },
        {
          "internalType": "address",
          "name": "to",
          "type": "address"
        },
        {
          "internalType": "uint256",
          "name": "tokenId",
          "type": "uint256"
        },
        {
          "internalType": "bytes",
          "name": "_data",
          "type": "bytes"
        }
      ],
      "name": "safeTransferFrom",
      "outputs": [],
      "stateMutability": "nonpayable",
      "type": "function"
    },
    {
      "inputs": [
        {
          "internalType": "address",
          "name": "operator",
          "type": "address"
        },
        {
          "internalType": "bool",
          "name": "approved",
          "type": "bool"
        }
      ],
      "name": "setApprovalForAll",
      "outputs": [],
      "stateMutability": "nonpayable",
      "type": "function"
    },
    {
      "inputs": [
        {
          "internalType": "bytes4",
          "name": "interfaceId",
          "type": "bytes4"
        }
      ],
      "name": "supportsInterface",
      "outputs": [
        {
          "internalType": "bool",
          "name": "",
          "type": "bool"
        }
      ],
      "stateMutability": "view",
      "type": "function",
      "constant": true
    },
    {
      "inputs": [],
      "name": "symbol",
      "outputs": [
        {
          "internalType": "string",
          "name": "",
          "type": "string"
        }
      ],
      "stateMutability": "view",
      "type": "function",
      "constant": true
    },
    {
      "inputs": [
        {
          "internalType": "uint256",
          "name": "index",
          "type": "uint256"
        }
      ],
      "name": "tokenByIndex",
      "outputs": [
        {
          "internalType": "uint256",
          "name": "",
          "type": "uint256"
        }
      ],
      "stateMutability": "view",
      "type": "function",
      "constant": true
    },
    {
      "inputs": [
        {
          "internalType": "address",
          "name": "owner",
          "type": "address"
        },
        {
          "internalType": "uint256",
          "name": "index",
          "type": "uint256"
        }
      ],
      "name": "tokenOfOwnerByIndex",
      "outputs": [
        {
          "internalType": "uint256",
          "name": "",
          "type": "uint256"
        }
      ],
      "stateMutability": "view",
      "type": "function",
      "constant": true
    },
    {
      "inputs": [
        {
          "internalType": "uint256",
          "name": "tokenId",
          "type": "uint256"
        }
      ],
      "name": "tokenURI",
      "outputs": [
        {
          "internalType": "string",
          "name": "",
          "type": "string"
        }
      ],
      "stateMutability": "view",
      "type": "function",
      "constant": true
    },
    {
      "inputs": [],
      "name": "totalSupply",
      "outputs": [
        {
          "internalType": "uint256",
          "name": "",
          "type": "uint256"
        }
      ],
      "stateMutability": "view",
      "type": "function",
      "constant": true
    },
    {
      "inputs": [
        {
          "internalType": "address",
          "name": "from",
          "type": "address"
        },
        {
          "internalType": "address",
          "name": "to",
          "type": "address"
        },
        {
          "internalType": "uint256",
          "name": "tokenId",
          "type": "uint256"
        }
      ],
      "name": "transferFrom",
      "outputs": [],
      "stateMutability": "nonpayable",
      "type": "function"
    },
    {
      "inputs": [
        {
          "internalType": "address",
          "name": "newOwner",
          "type": "address"
        }
      ],
      "name": "transferOwnership",
      "outputs": [],
      "stateMutability": "nonpayable",
      "type": "function"
    },
    {
      "inputs": [
        {
          "internalType": "uint256",
          "name": "tokenId",
          "type": "uint256"
        }
      ],
      "name": "hash",
      "outputs": [
        {
          "internalType": "string",
          "name": "",
          "type": "string"
        }
      ],
      "stateMutability": "view",
      "type": "function",
      "constant": true
    },
    {
      "inputs": [
        {
          "internalType": "string",
          "name": "tokenHash",
          "type": "string"
        }
      ],
      "name": "mint",
      "outputs": [
        {
          "internalType": "uint256",
          "name": "",
          "type": "uint256"
        }
      ],
      "stateMutability": "payable",
      "type": "function",
      "payable": true
    },
    {
      "inputs": [],
      "name": "mintingCost",
      "outputs": [
        {
          "internalType": "uint128",
          "name": "",
          "type": "uint128"
        }
      ],
      "stateMutability": "view",
      "type": "function",
      "constant": true
    },
    {
      "inputs": [
        {
          "internalType": "uint128",
          "name": "cost",
          "type": "uint128"
        }
      ],
      "name": "setMintingCost",
      "outputs": [],
      "stateMutability": "nonpayable",
      "type": "function"
    }
  ],
  "bytecode": "0x60806040523480156200001157600080fd5b5060405162003b6c38038062003b6c833981810160405260408110156200003757600080fd5b81019080805160405193929190846401000000008211156200005857600080fd5b838201915060208201858111156200006f57600080fd5b82518660018202830111640100000000821117156200008d57600080fd5b8083526020830192505050908051906020019080838360005b83811015620000c3578082015181840152602081019050620000a6565b50505050905090810190601f168015620000f15780820380516001836020036101000a031916815260200191505b50604052602001805190602001909291905050506040518060400160405280600a81526020017f6e66742d626c6f636b73000000000000000000000000000000000000000000008152506040518060400160405280600681526020017f424c4f434b530000000000000000000000000000000000000000000000000000815250620001896301ffc9a760e01b6200030860201b60201c565b8160069080519060200190620001a192919062000435565b508060079080519060200190620001ba92919062000435565b50620001d36380ac58cd60e01b6200030860201b60201c565b620001eb635b5e139f60e01b6200030860201b60201c565b6200020363780e9d6360e01b6200030860201b60201c565b50506000620002176200041160201b60201c565b905080600a60006101000a81548173ffffffffffffffffffffffffffffffffffffffff021916908373ffffffffffffffffffffffffffffffffffffffff1602179055508073ffffffffffffffffffffffffffffffffffffffff16600073ffffffffffffffffffffffffffffffffffffffff167f8be0079c531659141344cd1fd0a4f28419497f9722a3daafe3b4186f6b6457e060405160405180910390a350620002c7826200041960201b60201c565b80600c60006101000a8154816fffffffffffffffffffffffffffffffff02191690836fffffffffffffffffffffffffffffffff1602179055505050620004e4565b63ffffffff60e01b817bffffffffffffffffffffffffffffffffffffffffffffffffffffffff19161415620003a5576040517f08c379a000000000000000000000000000000000000000000000000000000000815260040180806020018281038252601c8152602001807f4552433136353a20696e76616c696420696e746572666163652069640000000081525060200191505060405180910390fd5b6001600080837bffffffffffffffffffffffffffffffffffffffffffffffffffffffff19167bffffffffffffffffffffffffffffffffffffffffffffffffffffffff1916815260200190815260200160002060006101000a81548160ff02191690831515021790555050565b600033905090565b80600990805190602001906200043192919062000435565b5050565b828054600181600116156101000203166002900490600052602060002090601f016020900481019282601f106200047857805160ff1916838001178555620004a9565b82800160010185558215620004a9579182015b82811115620004a85782518255916020019190600101906200048b565b5b509050620004b89190620004bc565b5090565b620004e191905b80821115620004dd576000816000905550600101620004c3565b5090565b90565b61367880620004f46000396000f3fe60806040526004361061014b5760003560e01c806370a08231116100b6578063b88d4fde1161006f578063b88d4fde146108d3578063c87b56dd146109e5578063d85d3d2714610a99578063e985e9c514610b68578063ebf98abf14610bf1578063f2fde38b14610c405761014b565b806370a082311461065f578063715018a6146106c45780638da5cb5b146106db57806395d89b4114610732578063a22cb465146107c2578063b189fd4c1461081f5761014b565b80632f745c59116101085780632f745c59146103ce57806342842e0e1461043d5780634f6ccce7146104b85780635cb6a6ea146105075780636352211e146105545780636c0360eb146105cf5761014b565b806301ffc9a71461015057806306fdde03146101c2578063081812fc14610252578063095ea7b3146102cd57806318160ddd1461032857806323b872dd14610353575b600080fd5b34801561015c57600080fd5b506101a86004803603602081101561017357600080fd5b8101908080357bffffffffffffffffffffffffffffffffffffffffffffffffffffffff19169060200190929190505050610c91565b604051808215151515815260200191505060405180910390f35b3480156101ce57600080fd5b506101d7610cf8565b6040518080602001828103825283818151815260200191508051906020019080838360005b838110156102175780820151818401526020810190506101fc565b50505050905090810190601f1680156102445780820380516001836020036101000a031916815260200191505b509250505060405180910390f35b34801561025e57600080fd5b5061028b6004803603602081101561027557600080fd5b8101908080359060200190929190505050610d9a565b604051808273ffffffffffffffffffffffffffffffffffffffff1673ffffffffffffffffffffffffffffffffffffffff16815260200191505060405180910390f35b3480156102d957600080fd5b50610326600480360360408110156102f057600080fd5b81019080803573ffffffffffffffffffffffffffffffffffffffff16906020019092919080359060200190929190505050610e35565b005b34801561033457600080fd5b5061033d610f79565b6040518082815260200191505060405180910390f35b34801561035f57600080fd5b506103cc6004803603606081101561037657600080fd5b81019080803573ffffffffffffffffffffffffffffffffffffffff169060200190929190803573ffffffffffffffffffffffffffffffffffffffff16906020019092919080359060200190929190505050610f8a565b005b3480156103da57600080fd5b50610427600480360360408110156103f157600080fd5b81019080803573ffffffffffffffffffffffffffffffffffffffff16906020019092919080359060200190929190505050611000565b6040518082815260200191505060405180910390f35b34801561044957600080fd5b506104b66004803603606081101561046057600080fd5b81019080803573ffffffffffffffffffffffffffffffffffffffff169060200190929190803573ffffffffffffffffffffffffffffffffffffffff1690602001909291908035906020019092919050505061105b565b005b3480156104c457600080fd5b506104f1600480360360208110156104db57600080fd5b810190808035906020019092919050505061107b565b6040518082815260200191505060405180910390f35b34801561051357600080fd5b506105526004803603602081101561052a57600080fd5b8101908080356fffffffffffffffffffffffffffffffff16906020019092919050505061109e565b005b34801561056057600080fd5b5061058d6004803603602081101561057757600080fd5b81019080803590602001909291905050506111a4565b604051808273ffffffffffffffffffffffffffffffffffffffff1673ffffffffffffffffffffffffffffffffffffffff16815260200191505060405180910390f35b3480156105db57600080fd5b506105e46111db565b6040518080602001828103825283818151815260200191508051906020019080838360005b83811015610624578082015181840152602081019050610609565b50505050905090810190601f1680156106515780820380516001836020036101000a031916815260200191505b509250505060405180910390f35b34801561066b57600080fd5b506106ae6004803603602081101561068257600080fd5b81019080803573ffffffffffffffffffffffffffffffffffffffff16906020019092919050505061127d565b6040518082815260200191505060405180910390f35b3480156106d057600080fd5b506106d9611352565b005b3480156106e757600080fd5b506106f06114dd565b604051808273ffffffffffffffffffffffffffffffffffffffff1673ffffffffffffffffffffffffffffffffffffffff16815260200191505060405180910390f35b34801561073e57600080fd5b50610747611507565b6040518080602001828103825283818151815260200191508051906020019080838360005b8381101561078757808201518184015260208101905061076c565b50505050905090810190601f1680156107b45780820380516001836020036101000a031916815260200191505b509250505060405180910390f35b3480156107ce57600080fd5b5061081d600480360360408110156107e557600080fd5b81019080803573ffffffffffffffffffffffffffffffffffffffff1690602001909291908035151590602001909291905050506115a9565b005b34801561082b57600080fd5b506108586004803603602081101561084257600080fd5b8101908080359060200190929190505050611761565b6040518080602001828103825283818151815260200191508051906020019080838360005b8381101561089857808201518184015260208101905061087d565b50505050905090810190601f1680156108c55780820380516001836020036101000a031916815260200191505b509250505060405180910390f35b3480156108df57600080fd5b506109e3600480360360808110156108f657600080fd5b81019080803573ffffffffffffffffffffffffffffffffffffffff169060200190929190803573ffffffffffffffffffffffffffffffffffffffff169060200190929190803590602001909291908035906020019064010000000081111561095d57600080fd5b82018360208201111561096f57600080fd5b8035906020019184600183028401116401000000008311171561099157600080fd5b91908080601f016020809104026020016040519081016040528093929190818152602001838380828437600081840152601f19601f820116905080830192505050505050509192919290505050611874565b005b3480156109f157600080fd5b50610a1e60048036036020811015610a0857600080fd5b81019080803590602001909291905050506118ec565b6040518080602001828103825283818151815260200191508051906020019080838360005b83811015610a5e578082015181840152602081019050610a43565b50505050905090810190601f168015610a8b5780820380516001836020036101000a031916815260200191505b509250505060405180910390f35b610b5260048036036020811015610aaf57600080fd5b8101908080359060200190640100000000811115610acc57600080fd5b820183602082011115610ade57600080fd5b80359060200191846001830284011164010000000083111715610b0057600080fd5b91908080601f016020809104026020016040519081016040528093929190818152602001838380828437600081840152601f19601f820116905080830192505050505050509192919290505050611bd5565b6040518082815260200191505060405180910390f35b348015610b7457600080fd5b50610bd760048036036040811015610b8b57600080fd5b81019080803573ffffffffffffffffffffffffffffffffffffffff169060200190929190803573ffffffffffffffffffffffffffffffffffffffff169060200190929190505050611d56565b604051808215151515815260200191505060405180910390f35b348015610bfd57600080fd5b50610c06611dea565b60405180826fffffffffffffffffffffffffffffffff166fffffffffffffffffffffffffffffffff16815260200191505060405180910390f35b348015610c4c57600080fd5b50610c8f60048036036020811015610c6357600080fd5b81019080803573ffffffffffffffffffffffffffffffffffffffff169060200190929190505050611e10565b005b6000806000837bffffffffffffffffffffffffffffffffffffffffffffffffffffffff19167bffffffffffffffffffffffffffffffffffffffffffffffffffffffff1916815260200190815260200160002060009054906101000a900460ff169050919050565b606060068054600181600116156101000203166002900480601f016020809104026020016040519081016040528092919081815260200182805460018160011615610100020316600290048015610d905780601f10610d6557610100808354040283529160200191610d90565b820191906000526020600020905b815481529060010190602001808311610d7357829003601f168201915b5050505050905090565b6000610da582612020565b610dfa576040517f08c379a000000000000000000000000000000000000000000000000000000000815260040180806020018281038252602c81526020018061356d602c913960400191505060405180910390fd5b6004600083815260200190815260200160002060009054906101000a900473ffffffffffffffffffffffffffffffffffffffff169050919050565b6000610e40826111a4565b90508073ffffffffffffffffffffffffffffffffffffffff168373ffffffffffffffffffffffffffffffffffffffff161415610ec7576040517f08c379a00000000000000000000000000000000000000000000000000000000081526004018080602001828103825260218152602001806135f16021913960400191505060405180910390fd5b8073ffffffffffffffffffffffffffffffffffffffff16610ee661203d565b73ffffffffffffffffffffffffffffffffffffffff161480610f155750610f1481610f0f61203d565b611d56565b5b610f6a576040517f08c379a00000000000000000000000000000000000000000000000000000000081526004018080602001828103825260388152602001806134916038913960400191505060405180910390fd5b610f748383612045565b505050565b6000610f8560026120fe565b905090565b610f9b610f9561203d565b82612113565b610ff0576040517f08c379a00000000000000000000000000000000000000000000000000000000081526004018080602001828103825260318152602001806136126031913960400191505060405180910390fd5b610ffb838383612207565b505050565b600061105382600160008673ffffffffffffffffffffffffffffffffffffffff1673ffffffffffffffffffffffffffffffffffffffff16815260200190815260200160002061244a90919063ffffffff16565b905092915050565b61107683838360405180602001604052806000815250611874565b505050565b60008061109283600261246490919063ffffffff16565b50905080915050919050565b6110a661203d565b73ffffffffffffffffffffffffffffffffffffffff16600a60009054906101000a900473ffffffffffffffffffffffffffffffffffffffff1673ffffffffffffffffffffffffffffffffffffffff1614611168576040517f08c379a00000000000000000000000000000000000000000000000000000000081526004018080602001828103825260208152602001807f4f776e61626c653a2063616c6c6572206973206e6f7420746865206f776e657281525060200191505060405180910390fd5b80600c60006101000a8154816fffffffffffffffffffffffffffffffff02191690836fffffffffffffffffffffffffffffffff16021790555050565b60006111d4826040518060600160405280602981526020016134f36029913960026124939092919063ffffffff16565b9050919050565b606060098054600181600116156101000203166002900480601f0160208091040260200160405190810160405280929190818152602001828054600181600116156101000203166002900480156112735780601f1061124857610100808354040283529160200191611273565b820191906000526020600020905b81548152906001019060200180831161125657829003601f168201915b5050505050905090565b60008073ffffffffffffffffffffffffffffffffffffffff168273ffffffffffffffffffffffffffffffffffffffff161415611304576040517f08c379a000000000000000000000000000000000000000000000000000000000815260040180806020018281038252602a8152602001806134c9602a913960400191505060405180910390fd5b61134b600160008473ffffffffffffffffffffffffffffffffffffffff1673ffffffffffffffffffffffffffffffffffffffff1681526020019081526020016000206124b2565b9050919050565b61135a61203d565b73ffffffffffffffffffffffffffffffffffffffff16600a60009054906101000a900473ffffffffffffffffffffffffffffffffffffffff1673ffffffffffffffffffffffffffffffffffffffff161461141c576040517f08c379a00000000000000000000000000000000000000000000000000000000081526004018080602001828103825260208152602001807f4f776e61626c653a2063616c6c6572206973206e6f7420746865206f776e657281525060200191505060405180910390fd5b600073ffffffffffffffffffffffffffffffffffffffff16600a60009054906101000a900473ffffffffffffffffffffffffffffffffffffffff1673ffffffffffffffffffffffffffffffffffffffff167f8be0079c531659141344cd1fd0a4f28419497f9722a3daafe3b4186f6b6457e060405160405180910390a36000600a60006101000a81548173ffffffffffffffffffffffffffffffffffffffff021916908373ffffffffffffffffffffffffffffffffffffffff160217905550565b6000600a60009054906101000a900473ffffffffffffffffffffffffffffffffffffffff16905090565b606060078054600181600116156101000203166002900480601f01602080910402602001604051908101604052809291908181526020018280546001816001161561010002031660029004801561159f5780601f106115745761010080835404028352916020019161159f565b820191906000526020600020905b81548152906001019060200180831161158257829003601f168201915b5050505050905090565b6115b161203d565b73ffffffffffffffffffffffffffffffffffffffff168273ffffffffffffffffffffffffffffffffffffffff161415611652576040517f08c379a00000000000000000000000000000000000000000000000000000000081526004018080602001828103825260198152602001807f4552433732313a20617070726f766520746f2063616c6c65720000000000000081525060200191505060405180910390fd5b806005600061165f61203d565b73ffffffffffffffffffffffffffffffffffffffff1673ffffffffffffffffffffffffffffffffffffffff16815260200190815260200160002060008473ffffffffffffffffffffffffffffffffffffffff1673ffffffffffffffffffffffffffffffffffffffff16815260200190815260200160002060006101000a81548160ff0219169083151502179055508173ffffffffffffffffffffffffffffffffffffffff1661170c61203d565b73ffffffffffffffffffffffffffffffffffffffff167f17307eab39ab6107e8899845ad3d59bd9653f200f220920489ca2b5937696c3183604051808215151515815260200191505060405180910390a35050565b606061176c82612020565b6117c1576040517f08c379a000000000000000000000000000000000000000000000000000000000815260040180806020018281038252602d81526020018061339a602d913960400191505060405180910390fd5b600d60008381526020019081526020016000208054600181600116156101000203166002900480601f0160208091040260200160405190810160405280929190818152602001828054600181600116156101000203166002900480156118685780601f1061183d57610100808354040283529160200191611868565b820191906000526020600020905b81548152906001019060200180831161184b57829003601f168201915b50505050509050919050565b61188561187f61203d565b83612113565b6118da576040517f08c379a00000000000000000000000000000000000000000000000000000000081526004018080602001828103825260318152602001806136126031913960400191505060405180910390fd5b6118e6848484846124c7565b50505050565b60606118f782612020565b61194c576040517f08c379a000000000000000000000000000000000000000000000000000000000815260040180806020018281038252602f8152602001806135c2602f913960400191505060405180910390fd5b6060600860008481526020019081526020016000208054600181600116156101000203166002900480601f0160208091040260200160405190810160405280929190818152602001828054600181600116156101000203166002900480156119f55780601f106119ca576101008083540402835291602001916119f5565b820191906000526020600020905b8154815290600101906020018083116119d857829003601f168201915b50505050509050600060098054600181600116156101000203166002900490501415611a245780915050611bd0565b600081511115611afd576009816040516020018083805460018160011615610100020316600290048015611a8f5780601f10611a6d576101008083540402835291820191611a8f565b820191906000526020600020905b815481529060010190602001808311611a7b575b505082805190602001908083835b60208310611ac05780518252602082019150602081019050602083039250611a9d565b6001836020036101000a03801982511681845116808217855250505050505090500192505050604051602081830303815290604052915050611bd0565b6009611b0884612539565b6040516020018083805460018160011615610100020316600290048015611b665780601f10611b44576101008083540402835291820191611b66565b820191906000526020600020905b815481529060010190602001808311611b52575b505082805190602001908083835b60208310611b975780518252602082019150602081019050602083039250611b74565b6001836020036101000a038019825116818451168082178552505050505050905001925050506040516020818303038152906040529150505b919050565b6000600c60009054906101000a90046fffffffffffffffffffffffffffffffff166fffffffffffffffffffffffffffffffff1634101580611c4f5750611c196114dd565b73ffffffffffffffffffffffffffffffffffffffff16611c3761203d565b73ffffffffffffffffffffffffffffffffffffffff16145b611ca4576040517f08c379a000000000000000000000000000000000000000000000000000000000815260040180806020018281038252602f81526020018061351c602f913960400191505060405180910390fd5b6000611cb0600b612669565b905082600d60008381526020019081526020016000209080519060200190611cd99291906132f4565b50611ceb611ce561203d565b82612677565b611cf5600b612695565b6000341115611d4d57611d066114dd565b73ffffffffffffffffffffffffffffffffffffffff166108fc349081150290604051600060405180830381858888f19350505050158015611d4b573d6000803e3d6000fd5b505b80915050919050565b6000600560008473ffffffffffffffffffffffffffffffffffffffff1673ffffffffffffffffffffffffffffffffffffffff16815260200190815260200160002060008373ffffffffffffffffffffffffffffffffffffffff1673ffffffffffffffffffffffffffffffffffffffff16815260200190815260200160002060009054906101000a900460ff16905092915050565b6000600c60009054906101000a90046fffffffffffffffffffffffffffffffff16905090565b611e1861203d565b73ffffffffffffffffffffffffffffffffffffffff16600a60009054906101000a900473ffffffffffffffffffffffffffffffffffffffff1673ffffffffffffffffffffffffffffffffffffffff1614611eda576040517f08c379a00000000000000000000000000000000000000000000000000000000081526004018080602001828103825260208152602001807f4f776e61626c653a2063616c6c6572206973206e6f7420746865206f776e657281525060200191505060405180910390fd5b600073ffffffffffffffffffffffffffffffffffffffff168173ffffffffffffffffffffffffffffffffffffffff161415611f60576040517f08c379a000000000000000000000000000000000000000000000000000000000815260040180806020018281038252602681526020018061341b6026913960400191505060405180910390fd5b8073ffffffffffffffffffffffffffffffffffffffff16600a60009054906101000a900473ffffffffffffffffffffffffffffffffffffffff1673ffffffffffffffffffffffffffffffffffffffff167f8be0079c531659141344cd1fd0a4f28419497f9722a3daafe3b4186f6b6457e060405160405180910390a380600a60006101000a81548173ffffffffffffffffffffffffffffffffffffffff021916908373ffffffffffffffffffffffffffffffffffffffff16021790555050565b60006120368260026126ab90919063ffffffff16565b9050919050565b600033905090565b816004600083815260200190815260200160002060006101000a81548173ffffffffffffffffffffffffffffffffffffffff021916908373ffffffffffffffffffffffffffffffffffffffff160217905550808273ffffffffffffffffffffffffffffffffffffffff166120b8836111a4565b73ffffffffffffffffffffffffffffffffffffffff167f8c5be1e5ebec7d5bd14f71427d1e84f3dd0314c0f7b2291e5b200ac8c7c3b92560405160405180910390a45050565b600061210c826000016126c5565b9050919050565b600061211e82612020565b612173576040517f08c379a000000000000000000000000000000000000000000000000000000000815260040180806020018281038252602c815260200180613465602c913960400191505060405180910390fd5b600061217e836111a4565b90508073ffffffffffffffffffffffffffffffffffffffff168473ffffffffffffffffffffffffffffffffffffffff1614806121ed57508373ffffffffffffffffffffffffffffffffffffffff166121d584610d9a565b73ffffffffffffffffffffffffffffffffffffffff16145b806121fe57506121fd8185611d56565b5b91505092915050565b8273ffffffffffffffffffffffffffffffffffffffff16612227826111a4565b73ffffffffffffffffffffffffffffffffffffffff1614612293576040517f08c379a00000000000000000000000000000000000000000000000000000000081526004018080602001828103825260298152602001806135996029913960400191505060405180910390fd5b600073ffffffffffffffffffffffffffffffffffffffff168273ffffffffffffffffffffffffffffffffffffffff161415612319576040517f08c379a00000000000000000000000000000000000000000000000000000000081526004018080602001828103825260248152602001806134416024913960400191505060405180910390fd5b6123248383836126d6565b61232f600082612045565b61238081600160008673ffffffffffffffffffffffffffffffffffffffff1673ffffffffffffffffffffffffffffffffffffffff1681526020019081526020016000206126db90919063ffffffff16565b506123d281600160008573ffffffffffffffffffffffffffffffffffffffff1673ffffffffffffffffffffffffffffffffffffffff1681526020019081526020016000206126f590919063ffffffff16565b506123e98183600261270f9092919063ffffffff16565b50808273ffffffffffffffffffffffffffffffffffffffff168473ffffffffffffffffffffffffffffffffffffffff167fddf252ad1be2c89b69c2b068fc378daa952ba7f163c4a11628f55a4df523b3ef60405160405180910390a4505050565b60006124598360000183612744565b60001c905092915050565b60008060008061247786600001866127c7565b915091508160001c8160001c8090509350935050509250929050565b60006124a6846000018460001b84612860565b60001c90509392505050565b60006124c082600001612956565b9050919050565b6124d2848484612207565b6124de84848484612967565b612533576040517f08c379a00000000000000000000000000000000000000000000000000000000081526004018080602001828103825260328152602001806133e96032913960400191505060405180910390fd5b50505050565b60606000821415612581576040518060400160405280600181526020017f30000000000000000000000000000000000000000000000000000000000000008152509050612664565b600082905060005b600082146125ab578080600101915050600a82816125a357fe5b049150612589565b6060816040519080825280601f01601f1916602001820160405280156125e05781602001600182028038833980820191505090505b50905060006001830390508593505b6000841461265c57600a848161260157fe5b0660300160f81b8282806001900393508151811061261b57fe5b60200101907effffffffffffffffffffffffffffffffffffffffffffffffffffffffffffff1916908160001a905350600a848161265457fe5b0493506125ef565b819450505050505b919050565b600081600001549050919050565b612691828260405180602001604052806000815250612bac565b5050565b6001816000016000828254019250508190555050565b60006126bd836000018360001b612c1d565b905092915050565b600081600001805490509050919050565b505050565b60006126ed836000018360001b612c40565b905092915050565b6000612707836000018360001b612d28565b905092915050565b600061273b846000018460001b8473ffffffffffffffffffffffffffffffffffffffff1660001b612d98565b90509392505050565b6000818360000180549050116127a5576040517f08c379a00000000000000000000000000000000000000000000000000000000081526004018080602001828103825260228152602001806133c76022913960400191505060405180910390fd5b8260000182815481106127b457fe5b9060005260206000200154905092915050565b60008082846000018054905011612829576040517f08c379a000000000000000000000000000000000000000000000000000000000815260040180806020018281038252602281526020018061354b6022913960400191505060405180910390fd5b600084600001848154811061283a57fe5b906000526020600020906002020190508060000154816001015492509250509250929050565b60008084600101600085815260200190815260200160002054905060008114158390612927576040517f08c379a00000000000000000000000000000000000000000000000000000000081526004018080602001828103825283818151815260200191508051906020019080838360005b838110156128ec5780820151818401526020810190506128d1565b50505050905090810190601f1680156129195780820380516001836020036101000a031916815260200191505b509250505060405180910390fd5b5084600001600182038154811061293a57fe5b9060005260206000209060020201600101549150509392505050565b600081600001805490509050919050565b60006129888473ffffffffffffffffffffffffffffffffffffffff16612e74565b6129955760019050612ba4565b6060612b2b63150b7a0260e01b6129aa61203d565b888787604051602401808573ffffffffffffffffffffffffffffffffffffffff1673ffffffffffffffffffffffffffffffffffffffff1681526020018473ffffffffffffffffffffffffffffffffffffffff1673ffffffffffffffffffffffffffffffffffffffff16815260200183815260200180602001828103825283818151815260200191508051906020019080838360005b83811015612a5a578082015181840152602081019050612a3f565b50505050905090810190601f168015612a875780820380516001836020036101000a031916815260200191505b5095505050505050604051602081830303815290604052907bffffffffffffffffffffffffffffffffffffffffffffffffffffffff19166020820180517bffffffffffffffffffffffffffffffffffffffffffffffffffffffff83818316178352505050506040518060600160405280603281526020016133e9603291398773ffffffffffffffffffffffffffffffffffffffff16612ebf9092919063ffffffff16565b90506000818060200190516020811015612b4457600080fd5b8101908080519060200190929190505050905063150b7a0260e01b7bffffffffffffffffffffffffffffffffffffffffffffffffffffffff1916817bffffffffffffffffffffffffffffffffffffffffffffffffffffffff191614925050505b949350505050565b612bb68383612ed7565b612bc36000848484612967565b612c18576040517f08c379a00000000000000000000000000000000000000000000000000000000081526004018080602001828103825260328152602001806133e96032913960400191505060405180910390fd5b505050565b600080836001016000848152602001908152602001600020541415905092915050565b60008083600101600084815260200190815260200160002054905060008114612d1c5760006001820390506000600186600001805490500390506000866000018281548110612c8b57fe5b9060005260206000200154905080876000018481548110612ca857fe5b9060005260206000200181905550600183018760010160008381526020019081526020016000208190555086600001805480612ce057fe5b60019003818190600052602060002001600090559055866001016000878152602001908152602001600020600090556001945050505050612d22565b60009150505b92915050565b6000612d3483836130cb565b612d8d578260000182908060018154018082558091505060019003906000526020600020016000909190919091505582600001805490508360010160008481526020019081526020016000208190555060019050612d92565b600090505b92915050565b6000808460010160008581526020019081526020016000205490506000811415612e3f57846000016040518060400160405280868152602001858152509080600181540180825580915050600190039060005260206000209060020201600090919091909150600082015181600001556020820151816001015550508460000180549050856001016000868152602001908152602001600020819055506001915050612e6d565b82856000016001830381548110612e5257fe5b90600052602060002090600202016001018190555060009150505b9392505050565b60008060007fc5d2460186f7233c927e7db2dcc703c0e500b653ca82273b7bfad8045d85a47060001b9050833f9150808214158015612eb657506000801b8214155b92505050919050565b6060612ece84846000856130ee565b90509392505050565b600073ffffffffffffffffffffffffffffffffffffffff168273ffffffffffffffffffffffffffffffffffffffff161415612f7a576040517f08c379a00000000000000000000000000000000000000000000000000000000081526004018080602001828103825260208152602001807f4552433732313a206d696e7420746f20746865207a65726f206164647265737381525060200191505060405180910390fd5b612f8381612020565b15612ff6576040517f08c379a000000000000000000000000000000000000000000000000000000000815260040180806020018281038252601c8152602001807f4552433732313a20746f6b656e20616c7265616479206d696e7465640000000081525060200191505060405180910390fd5b613002600083836126d6565b61305381600160008573ffffffffffffffffffffffffffffffffffffffff1673ffffffffffffffffffffffffffffffffffffffff1681526020019081526020016000206126f590919063ffffffff16565b5061306a8183600261270f9092919063ffffffff16565b50808273ffffffffffffffffffffffffffffffffffffffff16600073ffffffffffffffffffffffffffffffffffffffff167fddf252ad1be2c89b69c2b068fc378daa952ba7f163c4a11628f55a4df523b3ef60405160405180910390a45050565b600080836001016000848152602001908152602001600020541415905092915050565b60606130f985612e74565b61316b576040517f08c379a000000000000000000000000000000000000000000000000000000000815260040180806020018281038252601d8152602001807f416464726573733a2063616c6c20746f206e6f6e2d636f6e747261637400000081525060200191505060405180910390fd5b600060608673ffffffffffffffffffffffffffffffffffffffff1685876040518082805190602001908083835b602083106131bb5780518252602082019150602081019050602083039250613198565b6001836020036101000a03801982511681845116808217855250505050505090500191505060006040518083038185875af1925050503d806000811461321d576040519150601f19603f3d011682016040523d82523d6000602084013e613222565b606091505b509150915081156132375780925050506132ec565b60008151111561324a5780518082602001fd5b836040517f08c379a00000000000000000000000000000000000000000000000000000000081526004018080602001828103825283818151815260200191508051906020019080838360005b838110156132b1578082015181840152602081019050613296565b50505050905090810190601f1680156132de5780820380516001836020036101000a031916815260200191505b509250505060405180910390fd5b949350505050565b828054600181600116156101000203166002900490600052602060002090601f016020900481019282601f1061333557805160ff1916838001178555613363565b82800160010185558215613363579182015b82811115613362578251825591602001919060010190613347565b5b5090506133709190613374565b5090565b61339691905b8082111561339257600081600090555060010161337a565b5090565b9056fe426c6f636b73546f6b656e3a206861736820717565727920666f72206e6f6e6578697374656e7420746f6b656e456e756d657261626c655365743a20696e646578206f7574206f6620626f756e64734552433732313a207472616e7366657220746f206e6f6e20455243373231526563656976657220696d706c656d656e7465724f776e61626c653a206e6577206f776e657220697320746865207a65726f20616464726573734552433732313a207472616e7366657220746f20746865207a65726f20616464726573734552433732313a206f70657261746f7220717565727920666f72206e6f6e6578697374656e7420746f6b656e4552433732313a20617070726f76652063616c6c6572206973206e6f74206f776e6572206e6f7220617070726f76656420666f7220616c6c4552433732313a2062616c616e636520717565727920666f7220746865207a65726f20616464726573734552433732313a206f776e657220717565727920666f72206e6f6e6578697374656e7420746f6b656e426c6f636b73546f6b656e3a206d696e74696e6720717565727920776974686f757420656e6f7567682076616c7565456e756d657261626c654d61703a20696e646578206f7574206f6620626f756e64734552433732313a20617070726f76656420717565727920666f72206e6f6e6578697374656e7420746f6b656e4552433732313a207472616e73666572206f6620746f6b656e2074686174206973206e6f74206f776e4552433732314d657461646174613a2055524920717565727920666f72206e6f6e6578697374656e7420746f6b656e4552433732313a20617070726f76616c20746f2063757272656e74206f776e65724552433732313a207472616e736665722063616c6c6572206973206e6f74206f776e6572206e6f7220617070726f766564a264697066735822122085cbcd94b895edf6c8c77e4f34530fff5d2a0c287f7c077e5bd6c13bf1bff75d64736f6c63430006020033",
  "source": "// SPDX-License-Identifier: MIT\npragma solidity ^0.6.2;\n\nimport '@openzeppelin/contracts/access/Ownable.sol';\nimport '@openzeppelin/contracts/token/ERC721/ERC721.sol';\nimport '@openzeppelin/contracts/utils/Counters.sol';\n\n// NFT Blocks token\n\ncontract BlocksToken is ERC721, Ownable {\n  using Counters for Counters.Counter;\n  Counters.Counter private _tokenIds;\n\n  uint128 private _mintingCost;\n  mapping (uint256 => string) private _hashes;\n\n  constructor(string memory baseURI, uint128 mintingCost) public ERC721(\"nft-blocks\", \"BLOCKS\") {\n    _setBaseURI(baseURI);\n    _mintingCost = mintingCost;\n  }\n\n  // Get token hash\n  function hash(uint256 tokenId)\n    public\n    view\n    returns (string memory)\n  {\n    require(\n      _exists(tokenId),\n      \"BlocksToken: hash query for nonexistent token\"\n    );\n    return _hashes[tokenId];\n  }\n\n  // Create a new token\n  function mint(string memory tokenHash)\n    public\n    payable\n    returns (uint256)\n  {\n    require(\n      msg.value >= _mintingCost || _msgSender() == owner(),\n      \"BlocksToken: minting query without enough value\"\n    );\n    uint256 tokenId = _tokenIds.current();\n    _hashes[tokenId] = tokenHash;\n    _safeMint(_msgSender(), tokenId);\n    _tokenIds.increment();\n    if (msg.value > 0) {\n      payable(owner()).transfer(msg.value);\n    }\n    return tokenId;\n  }\n\n  // Get the current minting cost\n  function mintingCost()\n    public\n    view\n    returns (uint128)\n  {\n    return _mintingCost;\n  }\n\n  // Update the minting cost\n  function setMintingCost(uint128 cost)\n    public\n    onlyOwner\n  {\n    _mintingCost = cost;\n  }\n}\n",
  "sourcePath": "D:/Code/nft-blocks/contracts/BlocksToken.sol",
  "compiler": {
    "name": "solc",
    "version": "0.6.2+commit.bacdbe57.Emscripten.clang"
  },
  "schemaVersion": "3.2.3",
  "updatedAt": "2020-08-12T03:16:52.946Z"
}